{
  "_format": "hh-sol-artifact-1",
  "contractName": "Airdrop",
  "sourceName": "contracts/system-contracts/hedera-token-service/examples/hrc-904/Airdrop.sol",
  "abi": [
    {
      "anonymous": false,
      "inputs": [
        {
          "indexed": false,
          "internalType": "bool",
          "name": "",
          "type": "bool"
        },
        {
          "indexed": false,
          "internalType": "bytes",
          "name": "",
          "type": "bytes"
        }
      ],
      "name": "CallResponseEvent",
      "type": "event"
    },
    {
      "inputs": [
        {
          "internalType": "address[]",
          "name": "token",
          "type": "address[]"
        },
        {
          "internalType": "address[]",
          "name": "nft",
          "type": "address[]"
        },
        {
          "internalType": "address[]",
          "name": "tokenSenders",
          "type": "address[]"
        },
        {
          "internalType": "address[]",
          "name": "tokenReceivers",
          "type": "address[]"
        },
        {
          "internalType": "address[]",
          "name": "nftSenders",
          "type": "address[]"
        },
        {
          "internalType": "address[]",
          "name": "nftReceivers",
          "type": "address[]"
        },
        {
          "internalType": "int64",
          "name": "tokenAmount",
          "type": "int64"
        },
        {
          "internalType": "int64[]",
          "name": "serials",
          "type": "int64[]"
        }
      ],
      "name": "mixedAirdrop",
      "outputs": [
        {
          "internalType": "int64",
          "name": "responseCode",
          "type": "int64"
        }
      ],
      "stateMutability": "payable",
      "type": "function"
    },
    {
      "inputs": [
        {
          "internalType": "address",
          "name": "token",
          "type": "address"
        },
        {
          "internalType": "address",
          "name": "sender",
          "type": "address"
        },
        {
          "internalType": "address",
          "name": "receiver",
          "type": "address"
        },
        {
          "internalType": "int64",
          "name": "serial",
          "type": "int64"
        }
      ],
      "name": "nftAirdrop",
      "outputs": [
        {
          "internalType": "int64",
          "name": "responseCode",
          "type": "int64"
        }
      ],
      "stateMutability": "payable",
      "type": "function"
    },
    {
      "inputs": [
        {
          "internalType": "address",
          "name": "token",
          "type": "address"
        },
        {
          "internalType": "address",
          "name": "sender",
          "type": "address"
        },
        {
          "internalType": "address[]",
          "name": "receivers",
          "type": "address[]"
        },
        {
          "internalType": "int64[]",
          "name": "serials",
          "type": "int64[]"
        }
      ],
      "name": "nftAirdropDistribute",
      "outputs": [
        {
          "internalType": "int64",
          "name": "responseCode",
          "type": "int64"
        }
      ],
      "stateMutability": "payable",
      "type": "function"
    },
    {
      "inputs": [
        {
          "internalType": "address[]",
          "name": "nfts",
          "type": "address[]"
        },
        {
          "internalType": "address",
          "name": "sender",
          "type": "address"
        },
        {
          "internalType": "address",
          "name": "receiver",
          "type": "address"
        },
        {
          "internalType": "int64[]",
          "name": "serials",
          "type": "int64[]"
        }
      ],
      "name": "nftNAmountAirdrops",
      "outputs": [
        {
          "internalType": "int64",
          "name": "responseCode",
          "type": "int64"
        }
      ],
      "stateMutability": "nonpayable",
      "type": "function"
    },
    {
      "inputs": [
        {
          "internalType": "address",
          "name": "token",
          "type": "address"
        },
        {
          "internalType": "bytes",
          "name": "encodedFunctionSelector",
          "type": "bytes"
        }
      ],
      "name": "redirectForToken",
      "outputs": [
        {
          "internalType": "int256",
          "name": "responseCode",
          "type": "int256"
        },
        {
          "internalType": "bytes",
          "name": "response",
          "type": "bytes"
        }
      ],
      "stateMutability": "nonpayable",
      "type": "function"
    },
    {
      "inputs": [
        {
          "internalType": "address",
          "name": "token",
          "type": "address"
        },
        {
          "internalType": "address",
          "name": "sender",
          "type": "address"
        },
        {
          "internalType": "address",
          "name": "receiver",
          "type": "address"
        },
        {
          "internalType": "int64",
          "name": "amount",
          "type": "int64"
        }
      ],
      "name": "tokenAirdrop",
      "outputs": [
        {
          "internalType": "int64",
          "name": "responseCode",
          "type": "int64"
        }
      ],
      "stateMutability": "payable",
      "type": "function"
    },
    {
      "inputs": [
        {
          "internalType": "address",
          "name": "token",
          "type": "address"
        },
        {
          "internalType": "address",
          "name": "sender",
          "type": "address"
        },
        {
          "internalType": "address[]",
          "name": "receivers",
          "type": "address[]"
        },
        {
          "internalType": "int64",
          "name": "amount",
          "type": "int64"
        }
      ],
      "name": "tokenAirdropDistribute",
      "outputs": [
        {
          "internalType": "int64",
          "name": "responseCode",
          "type": "int64"
        }
      ],
      "stateMutability": "payable",
      "type": "function"
    },
    {
      "inputs": [
        {
          "internalType": "address[]",
          "name": "tokens",
          "type": "address[]"
        },
        {
          "internalType": "address",
          "name": "sender",
          "type": "address"
        },
        {
          "internalType": "address",
          "name": "receiver",
          "type": "address"
        },
        {
          "internalType": "int64",
          "name": "amount",
          "type": "int64"
        }
      ],
      "name": "tokenNAmountAirdrops",
      "outputs": [
        {
          "internalType": "int64",
          "name": "responseCode",
          "type": "int64"
        }
      ],
      "stateMutability": "payable",
      "type": "function"
    },
    {
      "inputs": [
        {
          "internalType": "address",
          "name": "token",
          "type": "address"
        },
        {
          "internalType": "address",
          "name": "from",
          "type": "address"
        },
        {
          "internalType": "address",
          "name": "to",
          "type": "address"
        },
        {
          "internalType": "uint256",
          "name": "amount",
          "type": "uint256"
        }
      ],
      "name": "transferFrom",
      "outputs": [
        {
          "internalType": "int64",
          "name": "responseCode",
          "type": "int64"
        }
      ],
      "stateMutability": "nonpayable",
      "type": "function"
    },
    {
      "inputs": [
        {
          "internalType": "address",
          "name": "token",
          "type": "address"
        },
        {
          "internalType": "address",
          "name": "from",
          "type": "address"
        },
        {
          "internalType": "address",
          "name": "to",
          "type": "address"
        },
        {
          "internalType": "uint256",
          "name": "serialNumber",
          "type": "uint256"
        }
      ],
      "name": "transferFromNFT",
      "outputs": [
        {
          "internalType": "int64",
          "name": "responseCode",
          "type": "int64"
        }
      ],
      "stateMutability": "nonpayable",
      "type": "function"
    }
  ],
  "bytecode": "0x608060405234801561000f575f80fd5b50611a198061001d5f395ff3fe60806040526004361061008f575f3560e01c8063913073f911610057578063913073f9146101305780639b23d3d9146101435780639ef773bf14610162578063b047158b14610175578063c4d7ff7c14610194575f80fd5b806315dacbea146100935780631b79e5f9146100ca57806341f6417f146100dd57806352c0d7d4146100f0578063618dc65e14610103575b5f80fd5b34801561009e575f80fd5b506100b26100ad3660046111ce565b6101a7565b60405160079190910b81526020015b60405180910390f35b6100b26100d8366004611227565b610296565b6100b26100eb366004611353565b61037e565b6100b26100fe366004611227565b61049e565b34801561010e575f80fd5b5061012261011d366004611397565b610611565b6040516100c1929190611484565b6100b261013e3660046114a4565b610728565b34801561014e575f80fd5b506100b261015d3660046111ce565b61097c565b6100b2610170366004611567565b6109c0565b348015610180575f80fd5b506100b261018f366004611687565b610cdb565b6100b26101a2366004611707565b610e66565b6040516001600160a01b038581166024830152848116604483015283166064820152608481018290525f908190819061016790630aed65f560e11b9060a4015b60408051601f198184030181529181526020820180516001600160e01b03166001600160e01b03199094169390931790925290516102259190611759565b5f604051808303815f865af19150503d805f811461025e576040519150601f19603f3d011682016040523d82523d5f602084013e610263565b606091505b509150915081610274576015610288565b808060200190518101906102889190611774565b60030b979650505050505050565b6040805160018082528183019092525f91829190816020015b6102db60405180606001604052805f6001600160a01b0316815260200160608152602001606081525090565b8152602001906001900390816102af57905050905061031c60405180606001604052805f6001600160a01b0316815260200160608152602001606081525090565b6001600160a01b0387168152610333868686610ff8565b816020018190525080825f8151811061034e5761034e61179b565b6020026020010181905250610362826110df565b9250600783900b601614610374575f80fd5b5050949350505050565b83515f90818167ffffffffffffffff81111561039c5761039c611278565b6040519080825280602002602001820160405280156103f957816020015b6103e660405180606001604052805f6001600160a01b0316815260200160608152602001606081525090565b8152602001906001900390816103ba5790505b5090505f5b828110156104945761043260405180606001604052805f6001600160a01b0316815260200160608152602001606081525090565b8882815181106104445761044461179b565b60209081029190910101516001600160a01b03168152610465888888610ff8565b8160200181905250808383815181106104805761048061179b565b6020908102919091010152506001016103fe565b50610362816110df565b6040805160018082528183019092525f91829190816020015b6104e360405180606001604052805f6001600160a01b0316815260200160608152602001606081525090565b8152602001906001900390816104b757905050905061052460405180606001604052805f6001600160a01b0316815260200160608152602001606081525090565b6001600160a01b038781168252604080516080810182525f606082018190528984168252928816602080830191909152600788900b82840152825160018082528185019094529193929082015b604080516080810182525f8082526020808301829052928201819052606082015282525f1990920191018161057157905050905081815f815181106105b8576105b861179b565b602002602001018190525080836040018190525082845f815181106105df576105df61179b565b60200260200101819052506105f3846110df565b9450600785900b601614610605575f80fd5b50505050949350505050565b5f60605f806101676001600160a01b031663618dc65e60e01b878760405160240161063d9291906117af565b60408051601f198184030181529181526020820180516001600160e01b03166001600160e01b031990941693909317909252905161067b9190611759565b5f604051808303815f865af19150503d805f81146106b4576040519150601f19603f3d011682016040523d82523d5f602084013e6106b9565b606091505b50915091507f4af4780e06fe8cb9df64b0794fa6f01399af979175bb988e35e0e57e594567bc82826040516106ef9291906117d0565b60405180910390a18161071257601560405180602001604052805f815250610716565b6016815b60039190910b97909650945050505050565b5f808351600161073891906117fe565b6040805160018082528183019092529192505f9190816020015b61077e60405180606001604052805f6001600160a01b0316815260200160608152602001606081525090565b8152602001906001900390816107525790505090506107bf60405180606001604052805f6001600160a01b0316815260200160608152602001606081525090565b6001600160a01b038881168252604080516060810182525f602082018190529181018290529189168252805b8851811015610808576107fe8883611817565b91506001016107eb565b5061081281611846565b60070b60208301525f8567ffffffffffffffff81111561083457610834611278565b60405190808252806020026020018201604052801561087d57816020015b604080516060810182525f80825260208083018290529282015282525f199092019101816108525790505b50905082815f815181106108935761089361179b565b602090810291909101015260015b8681101561092b57604080516060810182525f80825260208201819052918101919091528a6108d160018461186b565b815181106108e1576108e161179b565b6020908102919091018101516001600160a01b0316825260078b900b90820152825181908490849081106109175761091761179b565b6020908102919091010152506001016108a1565b5080846020018190525083855f815181106109485761094861179b565b602002602001018190525061095c856110df565b9650600787900b60161461096e575f80fd5b505050505050949350505050565b6040516001600160a01b038581166024830152848116604483015283166064820152608481018290525f908190819061016790639b23d3d960e01b9060a4016101e7565b5f80855188516109d091906117fe565b90505f8167ffffffffffffffff8111156109ec576109ec611278565b604051908082528060200260200182016040528015610a4957816020015b610a3660405180606001604052805f6001600160a01b0316815260200160608152602001606081525090565b815260200190600190039081610a0a5790505b5090505f5b8951811015610b1a57610a8360405180606001604052805f6001600160a01b0316815260200160608152602001606081525090565b8c8281518110610a9557610a9561179b565b60209081029190910101516001600160a01b031681528a51610aeb908c9084908110610ac357610ac361179b565b60200260200101518b8481518110610add57610add61179b565b602002602001015189610ff8565b816020018190525080838381518110610b0657610b0661179b565b602090810291909101015250600101610a4e565b5088515f5b83821015610cb057610b5360405180606001604052805f6001600160a01b0316815260200160608152602001606081525090565b8c8281518110610b6557610b6561179b565b60209081029190910101516001600160a01b031681526040805160018082528183019092525f91816020015b604080516080810182525f8082526020808301829052928201819052606082015282525f19909201910181610b91579050509050610c498b8481518110610bda57610bda61179b565b60200260200101518b8581518110610bf457610bf461179b565b60200260200101518a8681518110610c0e57610c0e61179b565b6020026020010151604080516080810182525f60608201526001600160a01b03948516815292909316602083015260070b9181019190915290565b815f81518110610c5b57610c5b61179b565b602002602001018190525080826040018190525081858581518110610c8257610c8261179b565b60200260200101819052508380610c989061187e565b94505050508080610ca89061187e565b915050610b1f565b50610cba826110df565b9350600784900b601614610ccc575f80fd5b50505098975050505050505050565b83515f90818167ffffffffffffffff811115610cf957610cf9611278565b604051908082528060200260200182016040528015610d5657816020015b610d4360405180606001604052805f6001600160a01b0316815260200160608152602001606081525090565b815260200190600190039081610d175790505b5090505f5b8281101561049457610d8f60405180606001604052805f6001600160a01b0316815260200160608152602001606081525090565b888281518110610da157610da161179b565b60209081029190910101516001600160a01b031681526040805160018082528183019092525f91816020015b604080516080810182525f8082526020808301829052928201819052606082015282525f19909201910181610dcd579050509050610e188989898681518110610c0e57610c0e61179b565b815f81518110610e2a57610e2a61179b565b602002602001018190525080826040018190525081848481518110610e5157610e5161179b565b60209081029190910101525050600101610d5b565b81516040805160018082528183019092525f9291839190816020015b610eae60405180606001604052805f6001600160a01b0316815260200160608152602001606081525090565b815260200190600190039081610e82579050509050610eef60405180606001604052805f6001600160a01b0316815260200160608152602001606081525090565b6001600160a01b03881681525f8367ffffffffffffffff811115610f1557610f15611278565b604051908082528060200260200182016040528015610f6557816020015b604080516080810182525f8082526020808301829052928201819052606082015282525f19909201910181610f335790505b5090505f5b84811015610fc757610fa289898381518110610f8857610f8861179b565b6020026020010151898481518110610c0e57610c0e61179b565b828281518110610fb457610fb461179b565b6020908102919091010152600101610f6a565b5080826040018190525081835f81518110610fe457610fe461179b565b60200260200101819052506105f3836110df565b60408051606080820183525f60208301819052928201929092526001600160a01b038516815261102783611846565b600790810b60208381019190915260408051606080820183525f828401526001600160a01b03891682529387900b818401528151600280825294810190925292909182015b604080516060810182525f80825260208083018290529282015282525f1990920191018161106c57905050925081835f815181106110ac576110ac61179b565b602002602001018190525080836001815181106110cb576110cb61179b565b602002602001018190525050509392505050565b5f805f6101676001600160a01b0316632f34811960e01b856040516024016111079190611901565b60408051601f198184030181529181526020820180516001600160e01b03166001600160e01b03199094169390931790925290516111459190611759565b5f604051808303815f865af19150503d805f811461117e576040519150601f19603f3d011682016040523d82523d5f602084013e611183565b606091505b5091509150816111945760156111a8565b808060200190518101906111a89190611774565b60030b949350505050565b80356001600160a01b03811681146111c9575f80fd5b919050565b5f805f80608085870312156111e1575f80fd5b6111ea856111b3565b93506111f8602086016111b3565b9250611206604086016111b3565b9396929550929360600135925050565b8035600781900b81146111c9575f80fd5b5f805f806080858703121561123a575f80fd5b611243856111b3565b9350611251602086016111b3565b925061125f604086016111b3565b915061126d60608601611216565b905092959194509250565b634e487b7160e01b5f52604160045260245ffd5b604051601f8201601f1916810167ffffffffffffffff811182821017156112b5576112b5611278565b604052919050565b5f67ffffffffffffffff8211156112d6576112d6611278565b5060051b60200190565b5f82601f8301126112ef575f80fd5b813560206113046112ff836112bd565b61128c565b8083825260208201915060208460051b870101935086841115611325575f80fd5b602086015b848110156113485761133b816111b3565b835291830191830161132a565b509695505050505050565b5f805f8060808587031215611366575f80fd5b843567ffffffffffffffff81111561137c575f80fd5b611388878288016112e0565b945050611251602086016111b3565b5f80604083850312156113a8575f80fd5b6113b1836111b3565b915060208084013567ffffffffffffffff808211156113ce575f80fd5b818601915086601f8301126113e1575f80fd5b8135818111156113f3576113f3611278565b611405601f8201601f1916850161128c565b9150808252878482850101111561141a575f80fd5b80848401858401375f848284010152508093505050509250929050565b5f5b83811015611451578181015183820152602001611439565b50505f910152565b5f8151808452611470816020860160208601611437565b601f01601f19169290920160200192915050565b828152604060208201525f61149c6040830184611459565b949350505050565b5f805f80608085870312156114b7575f80fd5b6114c0856111b3565b93506114ce602086016111b3565b9250604085013567ffffffffffffffff8111156114e9575f80fd5b6114f5878288016112e0565b92505061126d60608601611216565b5f82601f830112611513575f80fd5b813560206115236112ff836112bd565b8083825260208201915060208460051b870101935086841115611544575f80fd5b602086015b848110156113485761155a81611216565b8352918301918301611549565b5f805f805f805f80610100898b03121561157f575f80fd5b883567ffffffffffffffff80821115611596575f80fd5b6115a28c838d016112e0565b995060208b01359150808211156115b7575f80fd5b6115c38c838d016112e0565b985060408b01359150808211156115d8575f80fd5b6115e48c838d016112e0565b975060608b01359150808211156115f9575f80fd5b6116058c838d016112e0565b965060808b013591508082111561161a575f80fd5b6116268c838d016112e0565b955060a08b013591508082111561163b575f80fd5b6116478c838d016112e0565b945061165560c08c01611216565b935060e08b013591508082111561166a575f80fd5b506116778b828c01611504565b9150509295985092959890939650565b5f805f806080858703121561169a575f80fd5b843567ffffffffffffffff808211156116b1575f80fd5b6116bd888389016112e0565b95506116cb602088016111b3565b94506116d9604088016111b3565b935060608701359150808211156116ee575f80fd5b506116fb87828801611504565b91505092959194509250565b5f805f806080858703121561171a575f80fd5b611723856111b3565b9350611731602086016111b3565b9250604085013567ffffffffffffffff8082111561174d575f80fd5b6116d9888389016112e0565b5f825161176a818460208701611437565b9190910192915050565b5f60208284031215611784575f80fd5b81518060030b8114611794575f80fd5b9392505050565b634e487b7160e01b5f52603260045260245ffd5b6001600160a01b0383168152604060208201525f61149c6040830184611459565b8215158152604060208201525f61149c6040830184611459565b634e487b7160e01b5f52601160045260245ffd5b80820180821115611811576118116117ea565b92915050565b600781810b9083900b01677fffffffffffffff8113677fffffffffffffff1982121715611811576118116117ea565b5f8160070b677fffffffffffffff198103611863576118636117ea565b5f0392915050565b81810381811115611811576118116117ea565b5f6001820161188f5761188f6117ea565b5060010190565b5f815180845260208085019450602084015f5b838110156118f657815180516001600160a01b03908116895284820151168489015260408082015160070b90890152606090810151151590880152608090960195908201906001016118a9565b509495945050505050565b5f6020808301818452808551808352604092508286019150828160051b8701018488015f5b838110156119d557603f19898403018552815160608085016001600160a01b038084511687528a840151838c89015282815180855260808a0191508d830194505f92505b808310156119a25784518051851683528e81015160070b8f8401528d015115158d830152938d0193600192909201919085019061196a565b50948b0151888603898d0152946119b98187611896565b9a8d019a98505050948a01945050506001919091019050611926565b50909897505050505050505056fea26469706673582212209db636c4157988ac2327aaee5c0eb42aadcfb13ebec8882174da207ba14796ea64736f6c63430008180033",
  "linkReferences": {},
  "deployedLinkReferences": {}
}